{
  "address": "0x5FbDB2315678afecb367f032d93F642f64180aa3",
  "abi": [
    {
      "anonymous": false,
      "inputs": [
        {
          "indexed": false,
          "internalType": "uint256",
          "name": "id",
          "type": "uint256"
        },
        {
          "indexed": true,
          "internalType": "address",
          "name": "player1",
          "type": "address"
        },
        {
          "indexed": true,
          "internalType": "address",
          "name": "player2",
          "type": "address"
        },
        {
          "indexed": false,
          "internalType": "uint256",
          "name": "betAmount",
          "type": "uint256"
        }
      ],
      "name": "BetCompleted",
      "type": "event"
    },
    {
      "anonymous": false,
      "inputs": [
        {
          "indexed": false,
          "internalType": "uint256",
          "name": "id",
          "type": "uint256"
        },
        {
          "indexed": true,
          "internalType": "address",
          "name": "player1",
          "type": "address"
        },
        {
          "indexed": false,
          "internalType": "uint256",
          "name": "amount",
          "type": "uint256"
        }
      ],
      "name": "BetCreated",
      "type": "event"
    },
    {
      "anonymous": false,
      "inputs": [
        {
          "indexed": false,
          "internalType": "uint256",
          "name": "id",
          "type": "uint256"
        },
        {
          "indexed": true,
          "internalType": "address",
          "name": "player1",
          "type": "address"
        },
        {
          "indexed": false,
          "internalType": "uint256",
          "name": "amount",
          "type": "uint256"
        }
      ],
      "name": "BetFailed",
      "type": "event"
    },
    {
      "anonymous": false,
      "inputs": [
        {
          "indexed": false,
          "internalType": "uint256",
          "name": "id",
          "type": "uint256"
        },
        {
          "indexed": true,
          "internalType": "address",
          "name": "player2",
          "type": "address"
        },
        {
          "indexed": false,
          "internalType": "uint256",
          "name": "amount",
          "type": "uint256"
        }
      ],
      "name": "BetTaken",
      "type": "event"
    },
    {
      "anonymous": false,
      "inputs": [
        {
          "indexed": true,
          "internalType": "address",
          "name": "previousOwner",
          "type": "address"
        },
        {
          "indexed": true,
          "internalType": "address",
          "name": "newOwner",
          "type": "address"
        }
      ],
      "name": "OwnershipTransferred",
      "type": "event"
    },
    {
      "inputs": [
        {
          "internalType": "address",
          "name": "player1",
          "type": "address"
        }
      ],
      "name": "createBet",
      "outputs": [],
      "stateMutability": "payable",
      "type": "function"
    },
    {
      "inputs": [
        {
          "internalType": "uint256",
          "name": "id",
          "type": "uint256"
        }
      ],
      "name": "getBet",
      "outputs": [
        {
          "components": [
            {
              "internalType": "uint256",
              "name": "id",
              "type": "uint256"
            },
            {
              "internalType": "enum BetContract.BetStatus",
              "name": "status",
              "type": "uint8"
            },
            {
              "internalType": "address",
              "name": "player1",
              "type": "address"
            },
            {
              "internalType": "uint256",
              "name": "scorePlayer1",
              "type": "uint256"
            },
            {
              "internalType": "address",
              "name": "player2",
              "type": "address"
            },
            {
              "internalType": "uint256",
              "name": "scorePlayer2",
              "type": "uint256"
            },
            {
              "internalType": "address",
              "name": "winner",
              "type": "address"
            },
            {
              "internalType": "uint256",
              "name": "betAmount",
              "type": "uint256"
            }
          ],
          "internalType": "struct BetContract.Bet",
          "name": "",
          "type": "tuple"
        }
      ],
      "stateMutability": "view",
      "type": "function"
    },
    {
      "inputs": [],
      "name": "getPendingBets",
      "outputs": [
        {
          "components": [
            {
              "internalType": "uint256",
              "name": "id",
              "type": "uint256"
            },
            {
              "internalType": "enum BetContract.BetStatus",
              "name": "status",
              "type": "uint8"
            },
            {
              "internalType": "address",
              "name": "player1",
              "type": "address"
            },
            {
              "internalType": "uint256",
              "name": "scorePlayer1",
              "type": "uint256"
            },
            {
              "internalType": "address",
              "name": "player2",
              "type": "address"
            },
            {
              "internalType": "uint256",
              "name": "scorePlayer2",
              "type": "uint256"
            },
            {
              "internalType": "address",
              "name": "winner",
              "type": "address"
            },
            {
              "internalType": "uint256",
              "name": "betAmount",
              "type": "uint256"
            }
          ],
          "internalType": "struct BetContract.Bet[]",
          "name": "",
          "type": "tuple[]"
        }
      ],
      "stateMutability": "view",
      "type": "function"
    },
    {
      "inputs": [],
      "name": "getProtocolEarnings",
      "outputs": [
        {
          "internalType": "uint256",
          "name": "",
          "type": "uint256"
        }
      ],
      "stateMutability": "view",
      "type": "function"
    },
    {
      "inputs": [],
      "name": "minimumBet",
      "outputs": [
        {
          "internalType": "uint256",
          "name": "",
          "type": "uint256"
        }
      ],
      "stateMutability": "view",
      "type": "function"
    },
    {
      "inputs": [],
      "name": "owner",
      "outputs": [
        {
          "internalType": "address",
          "name": "",
          "type": "address"
        }
      ],
      "stateMutability": "view",
      "type": "function"
    },
    {
      "inputs": [],
      "name": "renounceOwnership",
      "outputs": [],
      "stateMutability": "nonpayable",
      "type": "function"
    },
    {
      "inputs": [
        {
          "internalType": "uint256",
          "name": "_betId",
          "type": "uint256"
        },
        {
          "internalType": "address",
          "name": "_player2",
          "type": "address"
        }
      ],
      "name": "takeBet",
      "outputs": [],
      "stateMutability": "payable",
      "type": "function"
    },
    {
      "inputs": [
        {
          "internalType": "address",
          "name": "newOwner",
          "type": "address"
        }
      ],
      "name": "transferOwnership",
      "outputs": [],
      "stateMutability": "nonpayable",
      "type": "function"
    },
    {
      "inputs": [
        {
          "internalType": "uint256",
          "name": "_betId",
          "type": "uint256"
        },
        {
          "internalType": "address",
          "name": "_player",
          "type": "address"
        },
        {
          "internalType": "uint256",
          "name": "_score",
          "type": "uint256"
        }
      ],
      "name": "updateScore",
      "outputs": [],
      "stateMutability": "nonpayable",
      "type": "function"
    }
  ],
  "transactionHash": "0x0a7008fdf327139e3ea39f72e243d35e52bcb06f7cf85109b00d5651a743c48c",
  "args": [],
  "numDeployments": 1,
  "solcInputHash": "45292cc4c86dd59ecce09a893713c247",
  "bytecode": "0x608060405266038d7ea4c6800060025534801561001b57600080fd5b5061003861002d61003d60201b60201c565b61004560201b60201c565b610109565b600033905090565b60008060009054906101000a900473ffffffffffffffffffffffffffffffffffffffff169050816000806101000a81548173ffffffffffffffffffffffffffffffffffffffff021916908373ffffffffffffffffffffffffffffffffffffffff1602179055508173ffffffffffffffffffffffffffffffffffffffff168173ffffffffffffffffffffffffffffffffffffffff167f8be0079c531659141344cd1fd0a4f28419497f9722a3daafe3b4186f6b6457e060405160405180910390a35050565b611f9a806101186000396000f3fe6080604052600436106100915760003560e01c80638da5cb5b116100595780638da5cb5b1461015c578063a4b47b1414610187578063a9d7a87e146101a3578063c38a8afd146101cc578063f2fde38b146101f757610091565b8063061e494f1461009657806360b73966146100d3578063692451a3146100ef578063715018a61461011a5780638020f32414610131575b600080fd5b3480156100a257600080fd5b506100bd60048036038101906100b8919061155f565b610220565b6040516100ca91906116f5565b60405180910390f35b6100ed60048036038101906100e8919061173d565b6103b3565b005b3480156100fb57600080fd5b506101046106ae565b604051610111919061178c565b60405180910390f35b34801561012657600080fd5b5061012f6106b8565b005b34801561013d57600080fd5b506101466106cc565b60405161015391906118f9565b60405180910390f35b34801561016857600080fd5b50610171610a88565b60405161017e919061192a565b60405180910390f35b6101a1600480360381019061019c9190611945565b610ab1565b005b3480156101af57600080fd5b506101ca60048036038101906101c59190611972565b610d4a565b005b3480156101d857600080fd5b506101e16110a7565b6040516101ee919061178c565b60405180910390f35b34801561020357600080fd5b5061021e60048036038101906102199190611945565b6110ad565b005b61022861148b565b6004600083815260200190815260200160002060405180610100016040529081600082015481526020016001820160009054906101000a900460ff1660038111156102765761027561159b565b5b60038111156102885761028761159b565b5b81526020016001820160019054906101000a900473ffffffffffffffffffffffffffffffffffffffff1673ffffffffffffffffffffffffffffffffffffffff1673ffffffffffffffffffffffffffffffffffffffff168152602001600282015481526020016003820160009054906101000a900473ffffffffffffffffffffffffffffffffffffffff1673ffffffffffffffffffffffffffffffffffffffff1673ffffffffffffffffffffffffffffffffffffffff168152602001600482015481526020016005820160009054906101000a900473ffffffffffffffffffffffffffffffffffffffff1673ffffffffffffffffffffffffffffffffffffffff1673ffffffffffffffffffffffffffffffffffffffff1681526020016006820154815250509050919050565b6000600460008481526020019081526020016000209050600060038111156103de576103dd61159b565b5b8160010160009054906101000a900460ff1660038111156104025761040161159b565b5b14610442576040517f08c379a000000000000000000000000000000000000000000000000000000000815260040161043990611a22565b60405180910390fd5b34816006015414610488576040517f08c379a000000000000000000000000000000000000000000000000000000000815260040161047f90611a8e565b60405180910390fd5b60018160010160006101000a81548160ff021916908360038111156104b0576104af61159b565b5b0217905550818160030160006101000a81548173ffffffffffffffffffffffffffffffffffffffff021916908373ffffffffffffffffffffffffffffffffffffffff1602179055508060046000858152602001908152602001600020600082015481600001556001820160009054906101000a900460ff168160010160006101000a81548160ff0219169083600381111561054e5761054d61159b565b5b02179055506001820160019054906101000a900473ffffffffffffffffffffffffffffffffffffffff168160010160016101000a81548173ffffffffffffffffffffffffffffffffffffffff021916908373ffffffffffffffffffffffffffffffffffffffff160217905550600282015481600201556003820160009054906101000a900473ffffffffffffffffffffffffffffffffffffffff168160030160006101000a81548173ffffffffffffffffffffffffffffffffffffffff021916908373ffffffffffffffffffffffffffffffffffffffff160217905550600482015481600401556005820160009054906101000a900473ffffffffffffffffffffffffffffffffffffffff168160050160006101000a81548173ffffffffffffffffffffffffffffffffffffffff021916908373ffffffffffffffffffffffffffffffffffffffff16021790555060068201548160060155905050505050565b6000600354905090565b6106c0611130565b6106ca60006111ae565b565b606060006106da6001611272565b9050600080600190505b8281116107af57600060038111156106ff576106fe61159b565b5b6004600083815260200190815260200160002060010160009054906101000a900460ff1660038111156107355761073461159b565b5b14806107885750600160038111156107505761074f61159b565b5b6004600083815260200190815260200160002060010160009054906101000a900460ff1660038111156107865761078561159b565b5b145b1561079c57818061079890611add565b9250505b80806107a790611add565b9150506106e4565b5060008167ffffffffffffffff8111156107cc576107cb611b25565b5b60405190808252806020026020018201604052801561080557816020015b6107f261148b565b8152602001906001900390816107ea5790505b509050600080600190505b838111610a7d576000600381111561082b5761082a61159b565b5b6004600083815260200190815260200160002060010160009054906101000a900460ff1660038111156108615761086061159b565b5b14806108b457506001600381111561087c5761087b61159b565b5b6004600083815260200190815260200160002060010160009054906101000a900460ff1660038111156108b2576108b161159b565b5b145b15610a6a576004600082815260200190815260200160002060405180610100016040529081600082015481526020016001820160009054906101000a900460ff1660038111156109075761090661159b565b5b60038111156109195761091861159b565b5b81526020016001820160019054906101000a900473ffffffffffffffffffffffffffffffffffffffff1673ffffffffffffffffffffffffffffffffffffffff1673ffffffffffffffffffffffffffffffffffffffff168152602001600282015481526020016003820160009054906101000a900473ffffffffffffffffffffffffffffffffffffffff1673ffffffffffffffffffffffffffffffffffffffff1673ffffffffffffffffffffffffffffffffffffffff168152602001600482015481526020016005820160009054906101000a900473ffffffffffffffffffffffffffffffffffffffff1673ffffffffffffffffffffffffffffffffffffffff1673ffffffffffffffffffffffffffffffffffffffff168152602001600682015481525050838381518110610a5057610a4f611b54565b5b60200260200101819052508180610a6690611add565b9250505b8080610a7590611add565b915050610810565b508194505050505090565b60008060009054906101000a900473ffffffffffffffffffffffffffffffffffffffff16905090565b600254341015610af6576040517f08c379a0000000000000000000000000000000000000000000000000000000008152600401610aed90611bcf565b60405180910390fd5b610b006001611280565b6000604051806101000160405280610b186001611272565b815260200160006003811115610b3157610b3061159b565b5b81526020018373ffffffffffffffffffffffffffffffffffffffff16815260200160008152602001600073ffffffffffffffffffffffffffffffffffffffff16815260200160008152602001600073ffffffffffffffffffffffffffffffffffffffff1681526020013481525090508060046000610baf6001611272565b81526020019081526020016000206000820151816000015560208201518160010160006101000a81548160ff02191690836003811115610bf257610bf161159b565b5b021790555060408201518160010160016101000a81548173ffffffffffffffffffffffffffffffffffffffff021916908373ffffffffffffffffffffffffffffffffffffffff1602179055506060820151816002015560808201518160030160006101000a81548173ffffffffffffffffffffffffffffffffffffffff021916908373ffffffffffffffffffffffffffffffffffffffff16021790555060a0820151816004015560c08201518160050160006101000a81548173ffffffffffffffffffffffffffffffffffffffff021916908373ffffffffffffffffffffffffffffffffffffffff16021790555060e082015181600601559050508173ffffffffffffffffffffffffffffffffffffffff167f5d51034605fe51fe0de6338bcab547034242e3f1b36e80aec6af07ebda031ded610d2f6001611272565b34604051610d3e929190611bef565b60405180910390a25050565b610d52611130565b600060046000858152602001908152602001600020905060016003811115610d7d57610d7c61159b565b5b8160010160009054906101000a900460ff166003811115610da157610da061159b565b5b1480610de2575060006003811115610dbc57610dbb61159b565b5b8160010160009054906101000a900460ff166003811115610de057610ddf61159b565b5b145b610e21576040517f08c379a0000000000000000000000000000000000000000000000000000000008152600401610e1890611c8a565b60405180910390fd5b8273ffffffffffffffffffffffffffffffffffffffff168160010160019054906101000a900473ffffffffffffffffffffffffffffffffffffffff1673ffffffffffffffffffffffffffffffffffffffff1603610e8657818160020181905550610f27565b8273ffffffffffffffffffffffffffffffffffffffff168160030160009054906101000a900473ffffffffffffffffffffffffffffffffffffffff1673ffffffffffffffffffffffffffffffffffffffff1603610eeb57818160040181905550610f26565b6040517f08c379a0000000000000000000000000000000000000000000000000000000008152600401610f1d90611cf6565b60405180910390fd5b5b6110a18160405180610100016040529081600082015481526020016001820160009054906101000a900460ff166003811115610f6657610f6561159b565b5b6003811115610f7857610f7761159b565b5b81526020016001820160019054906101000a900473ffffffffffffffffffffffffffffffffffffffff1673ffffffffffffffffffffffffffffffffffffffff1673ffffffffffffffffffffffffffffffffffffffff168152602001600282015481526020016003820160009054906101000a900473ffffffffffffffffffffffffffffffffffffffff1673ffffffffffffffffffffffffffffffffffffffff1673ffffffffffffffffffffffffffffffffffffffff168152602001600482015481526020016005820160009054906101000a900473ffffffffffffffffffffffffffffffffffffffff1673ffffffffffffffffffffffffffffffffffffffff1673ffffffffffffffffffffffffffffffffffffffff168152602001600682015481525050611296565b50505050565b60025481565b6110b5611130565b600073ffffffffffffffffffffffffffffffffffffffff168173ffffffffffffffffffffffffffffffffffffffff1603611124576040517f08c379a000000000000000000000000000000000000000000000000000000000815260040161111b90611d88565b60405180910390fd5b61112d816111ae565b50565b611138611483565b73ffffffffffffffffffffffffffffffffffffffff16611156610a88565b73ffffffffffffffffffffffffffffffffffffffff16146111ac576040517f08c379a00000000000000000000000000000000000000000000000000000000081526004016111a390611df4565b60405180910390fd5b565b60008060009054906101000a900473ffffffffffffffffffffffffffffffffffffffff169050816000806101000a81548173ffffffffffffffffffffffffffffffffffffffff021916908373ffffffffffffffffffffffffffffffffffffffff1602179055508173ffffffffffffffffffffffffffffffffffffffff168173ffffffffffffffffffffffffffffffffffffffff167f8be0079c531659141344cd1fd0a4f28419497f9722a3daafe3b4186f6b6457e060405160405180910390a35050565b600081600001549050919050565b6001816000016000828254019250508190555050565b600081606001511180156112ae575060008160a00151115b156114805760008160a001518260600151116112ce5781608001516112d4565b81604001515b905080600460008460000151815260200190815260200160002060050160006101000a81548173ffffffffffffffffffffffffffffffffffffffff021916908373ffffffffffffffffffffffffffffffffffffffff16021790555060006064605060028560e001516113469190611e14565b6113509190611e14565b61135a9190611e85565b905060008160028560e001516113709190611e14565b61137a9190611eb6565b9050806003600082825461138e9190611eea565b925050819055506000808473ffffffffffffffffffffffffffffffffffffffff16846040516113bc90611f4f565b60006040518083038185875af1925050503d80600081146113f9576040519150601f19603f3d011682016040523d82523d6000602084013e6113fe565b606091505b5091509150856080015173ffffffffffffffffffffffffffffffffffffffff16866040015173ffffffffffffffffffffffffffffffffffffffff167fbd0ecc7334be5852eb8be13405182000a8d3f3e011504f04dbdcb113407583ea88600001518960e00151604051611472929190611bef565b60405180910390a350505050505b50565b600033905090565b60405180610100016040528060008152602001600060038111156114b2576114b161159b565b5b8152602001600073ffffffffffffffffffffffffffffffffffffffff16815260200160008152602001600073ffffffffffffffffffffffffffffffffffffffff16815260200160008152602001600073ffffffffffffffffffffffffffffffffffffffff168152602001600081525090565b600080fd5b6000819050919050565b61153c81611529565b811461154757600080fd5b50565b60008135905061155981611533565b92915050565b60006020828403121561157557611574611524565b5b60006115838482850161154a565b91505092915050565b61159581611529565b82525050565b7f4e487b7100000000000000000000000000000000000000000000000000000000600052602160045260246000fd5b600481106115db576115da61159b565b5b50565b60008190506115ec826115ca565b919050565b60006115fc826115de565b9050919050565b61160c816115f1565b82525050565b600073ffffffffffffffffffffffffffffffffffffffff82169050919050565b600061163d82611612565b9050919050565b61164d81611632565b82525050565b6101008201600082015161166a600085018261158c565b50602082015161167d6020850182611603565b5060408201516116906040850182611644565b5060608201516116a3606085018261158c565b5060808201516116b66080850182611644565b5060a08201516116c960a085018261158c565b5060c08201516116dc60c0850182611644565b5060e08201516116ef60e085018261158c565b50505050565b60006101008201905061170b6000830184611653565b92915050565b61171a81611632565b811461172557600080fd5b50565b60008135905061173781611711565b92915050565b6000806040838503121561175457611753611524565b5b60006117628582860161154a565b925050602061177385828601611728565b9150509250929050565b61178681611529565b82525050565b60006020820190506117a1600083018461177d565b92915050565b600081519050919050565b600082825260208201905092915050565b6000819050602082019050919050565b610100820160008201516117ea600085018261158c565b5060208201516117fd6020850182611603565b5060408201516118106040850182611644565b506060820151611823606085018261158c565b5060808201516118366080850182611644565b5060a082015161184960a085018261158c565b5060c082015161185c60c0850182611644565b5060e082015161186f60e085018261158c565b50505050565b600061188183836117d3565b6101008301905092915050565b6000602082019050919050565b60006118a6826117a7565b6118b081856117b2565b93506118bb836117c3565b8060005b838110156118ec5781516118d38882611875565b97506118de8361188e565b9250506001810190506118bf565b5085935050505092915050565b60006020820190508181036000830152611913818461189b565b905092915050565b61192481611632565b82525050565b600060208201905061193f600083018461191b565b92915050565b60006020828403121561195b5761195a611524565b5b600061196984828501611728565b91505092915050565b60008060006060848603121561198b5761198a611524565b5b60006119998682870161154a565b93505060206119aa86828701611728565b92505060406119bb8682870161154a565b9150509250925092565b600082825260208201905092915050565b7f596f752063616e27742074616b65207468697320626574000000000000000000600082015250565b6000611a0c6017836119c5565b9150611a17826119d6565b602082019050919050565b60006020820190508181036000830152611a3b816119ff565b9050919050565b7f42657420616d6f756e74206e6f74206d61746368656400000000000000000000600082015250565b6000611a786016836119c5565b9150611a8382611a42565b602082019050919050565b60006020820190508181036000830152611aa781611a6b565b9050919050565b7f4e487b7100000000000000000000000000000000000000000000000000000000600052601160045260246000fd5b6000611ae882611529565b91507fffffffffffffffffffffffffffffffffffffffffffffffffffffffffffffffff8203611b1a57611b19611aae565b5b600182019050919050565b7f4e487b7100000000000000000000000000000000000000000000000000000000600052604160045260246000fd5b7f4e487b7100000000000000000000000000000000000000000000000000000000600052603260045260246000fd5b7f426574206c657373207468616e206d696e696d756d4265740000000000000000600082015250565b6000611bb96018836119c5565b9150611bc482611b83565b602082019050919050565b60006020820190508181036000830152611be881611bac565b9050919050565b6000604082019050611c04600083018561177d565b611c11602083018461177d565b9392505050565b7f42657420737461747573206e6f742043726561746564206f7220696e50726f6760008201527f7265737300000000000000000000000000000000000000000000000000000000602082015250565b6000611c746024836119c5565b9150611c7f82611c18565b604082019050919050565b60006020820190508181036000830152611ca381611c67565b9050919050565b7f496e76616c696420706c61796572206164647265737300000000000000000000600082015250565b6000611ce06016836119c5565b9150611ceb82611caa565b602082019050919050565b60006020820190508181036000830152611d0f81611cd3565b9050919050565b7f4f776e61626c653a206e6577206f776e657220697320746865207a65726f206160008201527f6464726573730000000000000000000000000000000000000000000000000000602082015250565b6000611d726026836119c5565b9150611d7d82611d16565b604082019050919050565b60006020820190508181036000830152611da181611d65565b9050919050565b7f4f776e61626c653a2063616c6c6572206973206e6f7420746865206f776e6572600082015250565b6000611dde6020836119c5565b9150611de982611da8565b602082019050919050565b60006020820190508181036000830152611e0d81611dd1565b9050919050565b6000611e1f82611529565b9150611e2a83611529565b9250828202611e3881611529565b91508282048414831517611e4f57611e4e611aae565b5b5092915050565b7f4e487b7100000000000000000000000000000000000000000000000000000000600052601260045260246000fd5b6000611e9082611529565b9150611e9b83611529565b925082611eab57611eaa611e56565b5b828204905092915050565b6000611ec182611529565b9150611ecc83611529565b9250828203905081811115611ee457611ee3611aae565b5b92915050565b6000611ef582611529565b9150611f0083611529565b9250828201905080821115611f1857611f17611aae565b5b92915050565b600081905092915050565b50565b6000611f39600083611f1e565b9150611f4482611f29565b600082019050919050565b6000611f5a82611f2c565b915081905091905056fea264697066735822122088f72f0983c3f27ec68ca3e4106385ac373e11393f458d7539372e3d8af6f06764736f6c63430008120033",
  "devdoc": {
    "kind": "dev",
    "methods": {
      "owner()": {
        "details": "Returns the address of the current owner."
      },
      "renounceOwnership()": {
        "details": "Leaves the contract without owner. It will not be possible to call `onlyOwner` functions. Can only be called by the current owner. NOTE: Renouncing ownership will leave the contract without an owner, thereby disabling any functionality that is only available to the owner."
      },
      "transferOwnership(address)": {
        "details": "Transfers ownership of the contract to a new account (`newOwner`). Can only be called by the current owner."
      }
    },
    "version": 1
  },
  "userdoc": {
    "kind": "user",
    "methods": {},
    "version": 1
  },
  "storageLayout": {
    "storage": [
      {
        "astId": 7,
        "contract": "contracts/Bet.sol:BetContract",
        "label": "_owner",
        "offset": 0,
        "slot": "0",
        "type": "t_address"
      },
      {
        "astId": 223,
        "contract": "contracts/Bet.sol:BetContract",
        "label": "_id",
        "offset": 0,
        "slot": "1",
        "type": "t_struct(Counter)140_storage"
      },
      {
        "astId": 226,
        "contract": "contracts/Bet.sol:BetContract",
        "label": "minimumBet",
        "offset": 0,
        "slot": "2",
        "type": "t_uint256"
      },
      {
        "astId": 228,
        "contract": "contracts/Bet.sol:BetContract",
        "label": "protocolEarnings",
        "offset": 0,
        "slot": "3",
        "type": "t_uint256"
      },
      {
        "astId": 233,
        "contract": "contracts/Bet.sol:BetContract",
        "label": "id2Bet",
        "offset": 0,
        "slot": "4",
        "type": "t_mapping(t_uint256,t_struct(Bet)256_storage)"
      }
    ],
    "types": {
      "t_address": {
        "encoding": "inplace",
        "label": "address",
        "numberOfBytes": "20"
      },
      "t_enum(BetStatus)238": {
        "encoding": "inplace",
        "label": "enum BetContract.BetStatus",
        "numberOfBytes": "1"
      },
      "t_mapping(t_uint256,t_struct(Bet)256_storage)": {
        "encoding": "mapping",
        "key": "t_uint256",
        "label": "mapping(uint256 => struct BetContract.Bet)",
        "numberOfBytes": "32",
        "value": "t_struct(Bet)256_storage"
      },
      "t_struct(Bet)256_storage": {
        "encoding": "inplace",
        "label": "struct BetContract.Bet",
        "members": [
          {
            "astId": 240,
            "contract": "contracts/Bet.sol:BetContract",
            "label": "id",
            "offset": 0,
            "slot": "0",
            "type": "t_uint256"
          },
          {
            "astId": 243,
            "contract": "contracts/Bet.sol:BetContract",
            "label": "status",
            "offset": 0,
            "slot": "1",
            "type": "t_enum(BetStatus)238"
          },
          {
            "astId": 245,
            "contract": "contracts/Bet.sol:BetContract",
            "label": "player1",
            "offset": 1,
            "slot": "1",
            "type": "t_address"
          },
          {
            "astId": 247,
            "contract": "contracts/Bet.sol:BetContract",
            "label": "scorePlayer1",
            "offset": 0,
            "slot": "2",
            "type": "t_uint256"
          },
          {
            "astId": 249,
            "contract": "contracts/Bet.sol:BetContract",
            "label": "player2",
            "offset": 0,
            "slot": "3",
            "type": "t_address"
          },
          {
            "astId": 251,
            "contract": "contracts/Bet.sol:BetContract",
            "label": "scorePlayer2",
            "offset": 0,
            "slot": "4",
            "type": "t_uint256"
          },
          {
            "astId": 253,
            "contract": "contracts/Bet.sol:BetContract",
            "label": "winner",
            "offset": 0,
            "slot": "5",
            "type": "t_address"
          },
          {
            "astId": 255,
            "contract": "contracts/Bet.sol:BetContract",
            "label": "betAmount",
            "offset": 0,
            "slot": "6",
            "type": "t_uint256"
          }
        ],
        "numberOfBytes": "224"
      },
      "t_struct(Counter)140_storage": {
        "encoding": "inplace",
        "label": "struct Counters.Counter",
        "members": [
          {
            "astId": 139,
            "contract": "contracts/Bet.sol:BetContract",
            "label": "_value",
            "offset": 0,
            "slot": "0",
            "type": "t_uint256"
          }
        ],
        "numberOfBytes": "32"
      },
      "t_uint256": {
        "encoding": "inplace",
        "label": "uint256",
        "numberOfBytes": "32"
      }
    }
  }
}