{
  "address": "0x5FbDB2315678afecb367f032d93F642f64180aa3",
  "abi": [
    {
      "anonymous": false,
      "inputs": [
        {
          "indexed": false,
          "internalType": "uint256",
          "name": "id",
          "type": "uint256"
        },
        {
          "indexed": true,
          "internalType": "address",
          "name": "player1",
          "type": "address"
        },
        {
          "indexed": true,
          "internalType": "address",
          "name": "player2",
          "type": "address"
        },
        {
          "indexed": false,
          "internalType": "uint256",
          "name": "amount",
          "type": "uint256"
        }
      ],
      "name": "BetCompleted",
      "type": "event"
    },
    {
      "anonymous": false,
      "inputs": [
        {
          "indexed": false,
          "internalType": "uint256",
          "name": "id",
          "type": "uint256"
        },
        {
          "indexed": true,
          "internalType": "address",
          "name": "player1",
          "type": "address"
        },
        {
          "indexed": false,
          "internalType": "uint256",
          "name": "amount",
          "type": "uint256"
        }
      ],
      "name": "BetCreated",
      "type": "event"
    },
    {
      "anonymous": false,
      "inputs": [
        {
          "indexed": false,
          "internalType": "uint256",
          "name": "id",
          "type": "uint256"
        },
        {
          "indexed": true,
          "internalType": "address",
          "name": "player1",
          "type": "address"
        },
        {
          "indexed": false,
          "internalType": "uint256",
          "name": "amount",
          "type": "uint256"
        }
      ],
      "name": "BetFailed",
      "type": "event"
    },
    {
      "anonymous": false,
      "inputs": [
        {
          "indexed": false,
          "internalType": "uint256",
          "name": "id",
          "type": "uint256"
        },
        {
          "indexed": true,
          "internalType": "address",
          "name": "player2",
          "type": "address"
        },
        {
          "indexed": false,
          "internalType": "uint256",
          "name": "amount",
          "type": "uint256"
        }
      ],
      "name": "BetTaken",
      "type": "event"
    },
    {
      "anonymous": false,
      "inputs": [
        {
          "indexed": true,
          "internalType": "address",
          "name": "previousOwner",
          "type": "address"
        },
        {
          "indexed": true,
          "internalType": "address",
          "name": "newOwner",
          "type": "address"
        }
      ],
      "name": "OwnershipTransferred",
      "type": "event"
    },
    {
      "inputs": [
        {
          "internalType": "address",
          "name": "player1",
          "type": "address"
        }
      ],
      "name": "createBet",
      "outputs": [],
      "stateMutability": "payable",
      "type": "function"
    },
    {
      "inputs": [
        {
          "internalType": "uint256",
          "name": "id",
          "type": "uint256"
        }
      ],
      "name": "getBet",
      "outputs": [
        {
          "components": [
            {
              "internalType": "uint256",
              "name": "id",
              "type": "uint256"
            },
            {
              "internalType": "enum BetContract.BetStatus",
              "name": "status",
              "type": "uint8"
            },
            {
              "internalType": "address",
              "name": "player1",
              "type": "address"
            },
            {
              "internalType": "uint256",
              "name": "scorePlayer1",
              "type": "uint256"
            },
            {
              "internalType": "address",
              "name": "player2",
              "type": "address"
            },
            {
              "internalType": "uint256",
              "name": "scorePlayer2",
              "type": "uint256"
            },
            {
              "internalType": "address",
              "name": "winner",
              "type": "address"
            },
            {
              "internalType": "uint256",
              "name": "betAmount",
              "type": "uint256"
            }
          ],
          "internalType": "struct BetContract.Bet",
          "name": "",
          "type": "tuple"
        }
      ],
      "stateMutability": "view",
      "type": "function"
    },
    {
      "inputs": [],
      "name": "getPendingBets",
      "outputs": [
        {
          "components": [
            {
              "internalType": "uint256",
              "name": "id",
              "type": "uint256"
            },
            {
              "internalType": "enum BetContract.BetStatus",
              "name": "status",
              "type": "uint8"
            },
            {
              "internalType": "address",
              "name": "player1",
              "type": "address"
            },
            {
              "internalType": "uint256",
              "name": "scorePlayer1",
              "type": "uint256"
            },
            {
              "internalType": "address",
              "name": "player2",
              "type": "address"
            },
            {
              "internalType": "uint256",
              "name": "scorePlayer2",
              "type": "uint256"
            },
            {
              "internalType": "address",
              "name": "winner",
              "type": "address"
            },
            {
              "internalType": "uint256",
              "name": "betAmount",
              "type": "uint256"
            }
          ],
          "internalType": "struct BetContract.Bet[]",
          "name": "",
          "type": "tuple[]"
        }
      ],
      "stateMutability": "view",
      "type": "function"
    },
    {
      "inputs": [],
      "name": "minimumBet",
      "outputs": [
        {
          "internalType": "uint256",
          "name": "",
          "type": "uint256"
        }
      ],
      "stateMutability": "view",
      "type": "function"
    },
    {
      "inputs": [],
      "name": "owner",
      "outputs": [
        {
          "internalType": "address",
          "name": "",
          "type": "address"
        }
      ],
      "stateMutability": "view",
      "type": "function"
    },
    {
      "inputs": [],
      "name": "renounceOwnership",
      "outputs": [],
      "stateMutability": "nonpayable",
      "type": "function"
    },
    {
      "inputs": [
        {
          "internalType": "uint256",
          "name": "_betId",
          "type": "uint256"
        },
        {
          "internalType": "address",
          "name": "_player2",
          "type": "address"
        }
      ],
      "name": "takeBet",
      "outputs": [],
      "stateMutability": "payable",
      "type": "function"
    },
    {
      "inputs": [
        {
          "internalType": "address",
          "name": "newOwner",
          "type": "address"
        }
      ],
      "name": "transferOwnership",
      "outputs": [],
      "stateMutability": "nonpayable",
      "type": "function"
    },
    {
      "inputs": [
        {
          "internalType": "uint256",
          "name": "_betId",
          "type": "uint256"
        },
        {
          "internalType": "address",
          "name": "_player",
          "type": "address"
        },
        {
          "internalType": "uint256",
          "name": "_score",
          "type": "uint256"
        }
      ],
      "name": "updateScore",
      "outputs": [],
      "stateMutability": "nonpayable",
      "type": "function"
    }
  ],
  "transactionHash": "0xe0664a6dfbed97e808ba37b4c1d8a039f790ea7d016aeab9df8b289dca771b15",
  "args": [],
  "numDeployments": 1,
  "solcInputHash": "7c6957f854578dc7919cdfe273bc9460",
  "bytecode": "0x608060405266038d7ea4c6800060025534801561001b57600080fd5b5061003861002d61003d60201b60201c565b61004560201b60201c565b610109565b600033905090565b60008060009054906101000a900473ffffffffffffffffffffffffffffffffffffffff169050816000806101000a81548173ffffffffffffffffffffffffffffffffffffffff021916908373ffffffffffffffffffffffffffffffffffffffff1602179055508173ffffffffffffffffffffffffffffffffffffffff168173ffffffffffffffffffffffffffffffffffffffff167f8be0079c531659141344cd1fd0a4f28419497f9722a3daafe3b4186f6b6457e060405160405180910390a35050565b611a20806101186000396000f3fe6080604052600436106100865760003560e01c80638da5cb5b116100595780638da5cb5b14610126578063a4b47b1414610151578063a9d7a87e1461016d578063c38a8afd14610196578063f2fde38b146101c157610086565b8063061e494f1461008b57806360b73966146100c8578063715018a6146100e45780638020f324146100fb575b600080fd5b34801561009757600080fd5b506100b260048036038101906100ad919061115e565b6101ea565b6040516100bf91906112f4565b60405180910390f35b6100e260048036038101906100dd919061133c565b61037d565b005b3480156100f057600080fd5b506100f9610678565b005b34801561010757600080fd5b5061011061068c565b60405161011d91906114ce565b60405180910390f35b34801561013257600080fd5b5061013b610a48565b60405161014891906114ff565b60405180910390f35b61016b6004803603810190610166919061151a565b610a71565b005b34801561017957600080fd5b50610194600480360381019061018f9190611547565b610cb0565b005b3480156101a257600080fd5b506101ab610e93565b6040516101b891906115a9565b60405180910390f35b3480156101cd57600080fd5b506101e860048036038101906101e3919061151a565b610e99565b005b6101f261108a565b6003600083815260200190815260200160002060405180610100016040529081600082015481526020016001820160009054906101000a900460ff1660038111156102405761023f61119a565b5b60038111156102525761025161119a565b5b81526020016001820160019054906101000a900473ffffffffffffffffffffffffffffffffffffffff1673ffffffffffffffffffffffffffffffffffffffff1673ffffffffffffffffffffffffffffffffffffffff168152602001600282015481526020016003820160009054906101000a900473ffffffffffffffffffffffffffffffffffffffff1673ffffffffffffffffffffffffffffffffffffffff1673ffffffffffffffffffffffffffffffffffffffff168152602001600482015481526020016005820160009054906101000a900473ffffffffffffffffffffffffffffffffffffffff1673ffffffffffffffffffffffffffffffffffffffff1673ffffffffffffffffffffffffffffffffffffffff1681526020016006820154815250509050919050565b6000600360008481526020019081526020016000209050600060038111156103a8576103a761119a565b5b8160010160009054906101000a900460ff1660038111156103cc576103cb61119a565b5b1461040c576040517f08c379a000000000000000000000000000000000000000000000000000000000815260040161040390611621565b60405180910390fd5b34816006015414610452576040517f08c379a00000000000000000000000000000000000000000000000000000000081526004016104499061168d565b60405180910390fd5b60018160010160006101000a81548160ff0219169083600381111561047a5761047961119a565b5b0217905550818160030160006101000a81548173ffffffffffffffffffffffffffffffffffffffff021916908373ffffffffffffffffffffffffffffffffffffffff1602179055508060036000858152602001908152602001600020600082015481600001556001820160009054906101000a900460ff168160010160006101000a81548160ff021916908360038111156105185761051761119a565b5b02179055506001820160019054906101000a900473ffffffffffffffffffffffffffffffffffffffff168160010160016101000a81548173ffffffffffffffffffffffffffffffffffffffff021916908373ffffffffffffffffffffffffffffffffffffffff160217905550600282015481600201556003820160009054906101000a900473ffffffffffffffffffffffffffffffffffffffff168160030160006101000a81548173ffffffffffffffffffffffffffffffffffffffff021916908373ffffffffffffffffffffffffffffffffffffffff160217905550600482015481600401556005820160009054906101000a900473ffffffffffffffffffffffffffffffffffffffff168160050160006101000a81548173ffffffffffffffffffffffffffffffffffffffff021916908373ffffffffffffffffffffffffffffffffffffffff16021790555060068201548160060155905050505050565b610680610f1c565b61068a6000610f9a565b565b6060600061069a600161105e565b9050600080600190505b82811161076f57600060038111156106bf576106be61119a565b5b6003600083815260200190815260200160002060010160009054906101000a900460ff1660038111156106f5576106f461119a565b5b14806107485750600160038111156107105761070f61119a565b5b6003600083815260200190815260200160002060010160009054906101000a900460ff1660038111156107465761074561119a565b5b145b1561075c578180610758906116dc565b9250505b8080610767906116dc565b9150506106a4565b5060008167ffffffffffffffff81111561078c5761078b611724565b5b6040519080825280602002602001820160405280156107c557816020015b6107b261108a565b8152602001906001900390816107aa5790505b509050600080600190505b838111610a3d57600060038111156107eb576107ea61119a565b5b6003600083815260200190815260200160002060010160009054906101000a900460ff1660038111156108215761082061119a565b5b148061087457506001600381111561083c5761083b61119a565b5b6003600083815260200190815260200160002060010160009054906101000a900460ff1660038111156108725761087161119a565b5b145b15610a2a576003600082815260200190815260200160002060405180610100016040529081600082015481526020016001820160009054906101000a900460ff1660038111156108c7576108c661119a565b5b60038111156108d9576108d861119a565b5b81526020016001820160019054906101000a900473ffffffffffffffffffffffffffffffffffffffff1673ffffffffffffffffffffffffffffffffffffffff1673ffffffffffffffffffffffffffffffffffffffff168152602001600282015481526020016003820160009054906101000a900473ffffffffffffffffffffffffffffffffffffffff1673ffffffffffffffffffffffffffffffffffffffff1673ffffffffffffffffffffffffffffffffffffffff168152602001600482015481526020016005820160009054906101000a900473ffffffffffffffffffffffffffffffffffffffff1673ffffffffffffffffffffffffffffffffffffffff1673ffffffffffffffffffffffffffffffffffffffff168152602001600682015481525050838381518110610a1057610a0f611753565b5b60200260200101819052508180610a26906116dc565b9250505b8080610a35906116dc565b9150506107d0565b508194505050505090565b60008060009054906101000a900473ffffffffffffffffffffffffffffffffffffffff16905090565b6002543411610ab5576040517f08c379a0000000000000000000000000000000000000000000000000000000008152600401610aac906117ce565b60405180910390fd5b610abf600161106c565b6000604051806101000160405280610ad7600161105e565b815260200160006003811115610af057610aef61119a565b5b81526020018373ffffffffffffffffffffffffffffffffffffffff16815260200160008152602001600073ffffffffffffffffffffffffffffffffffffffff16815260200160008152602001600073ffffffffffffffffffffffffffffffffffffffff1681526020013481525090508060036000610b6e600161105e565b81526020019081526020016000206000820151816000015560208201518160010160006101000a81548160ff02191690836003811115610bb157610bb061119a565b5b021790555060408201518160010160016101000a81548173ffffffffffffffffffffffffffffffffffffffff021916908373ffffffffffffffffffffffffffffffffffffffff1602179055506060820151816002015560808201518160030160006101000a81548173ffffffffffffffffffffffffffffffffffffffff021916908373ffffffffffffffffffffffffffffffffffffffff16021790555060a0820151816004015560c08201518160050160006101000a81548173ffffffffffffffffffffffffffffffffffffffff021916908373ffffffffffffffffffffffffffffffffffffffff16021790555060e082015181600601559050505050565b610cb8610f1c565b600060036000858152602001908152602001600020905060016003811115610ce357610ce261119a565b5b8160010160009054906101000a900460ff166003811115610d0757610d0661119a565b5b1480610d48575060006003811115610d2257610d2161119a565b5b8160010160009054906101000a900460ff166003811115610d4657610d4561119a565b5b145b610d87576040517f08c379a0000000000000000000000000000000000000000000000000000000008152600401610d7e90611860565b60405180910390fd5b8273ffffffffffffffffffffffffffffffffffffffff168160010160019054906101000a900473ffffffffffffffffffffffffffffffffffffffff1673ffffffffffffffffffffffffffffffffffffffff1603610dec57818160020181905550610e8d565b8273ffffffffffffffffffffffffffffffffffffffff168160030160009054906101000a900473ffffffffffffffffffffffffffffffffffffffff1673ffffffffffffffffffffffffffffffffffffffff1603610e5157818160040181905550610e8c565b6040517f08c379a0000000000000000000000000000000000000000000000000000000008152600401610e83906118cc565b60405180910390fd5b5b50505050565b60025481565b610ea1610f1c565b600073ffffffffffffffffffffffffffffffffffffffff168173ffffffffffffffffffffffffffffffffffffffff1603610f10576040517f08c379a0000000000000000000000000000000000000000000000000000000008152600401610f079061195e565b60405180910390fd5b610f1981610f9a565b50565b610f24611082565b73ffffffffffffffffffffffffffffffffffffffff16610f42610a48565b73ffffffffffffffffffffffffffffffffffffffff1614610f98576040517f08c379a0000000000000000000000000000000000000000000000000000000008152600401610f8f906119ca565b60405180910390fd5b565b60008060009054906101000a900473ffffffffffffffffffffffffffffffffffffffff169050816000806101000a81548173ffffffffffffffffffffffffffffffffffffffff021916908373ffffffffffffffffffffffffffffffffffffffff1602179055508173ffffffffffffffffffffffffffffffffffffffff168173ffffffffffffffffffffffffffffffffffffffff167f8be0079c531659141344cd1fd0a4f28419497f9722a3daafe3b4186f6b6457e060405160405180910390a35050565b600081600001549050919050565b6001816000016000828254019250508190555050565b600033905090565b60405180610100016040528060008152602001600060038111156110b1576110b061119a565b5b8152602001600073ffffffffffffffffffffffffffffffffffffffff16815260200160008152602001600073ffffffffffffffffffffffffffffffffffffffff16815260200160008152602001600073ffffffffffffffffffffffffffffffffffffffff168152602001600081525090565b600080fd5b6000819050919050565b61113b81611128565b811461114657600080fd5b50565b60008135905061115881611132565b92915050565b60006020828403121561117457611173611123565b5b600061118284828501611149565b91505092915050565b61119481611128565b82525050565b7f4e487b7100000000000000000000000000000000000000000000000000000000600052602160045260246000fd5b600481106111da576111d961119a565b5b50565b60008190506111eb826111c9565b919050565b60006111fb826111dd565b9050919050565b61120b816111f0565b82525050565b600073ffffffffffffffffffffffffffffffffffffffff82169050919050565b600061123c82611211565b9050919050565b61124c81611231565b82525050565b61010082016000820151611269600085018261118b565b50602082015161127c6020850182611202565b50604082015161128f6040850182611243565b5060608201516112a2606085018261118b565b5060808201516112b56080850182611243565b5060a08201516112c860a085018261118b565b5060c08201516112db60c0850182611243565b5060e08201516112ee60e085018261118b565b50505050565b60006101008201905061130a6000830184611252565b92915050565b61131981611231565b811461132457600080fd5b50565b60008135905061133681611310565b92915050565b6000806040838503121561135357611352611123565b5b600061136185828601611149565b925050602061137285828601611327565b9150509250929050565b600081519050919050565b600082825260208201905092915050565b6000819050602082019050919050565b610100820160008201516113bf600085018261118b565b5060208201516113d26020850182611202565b5060408201516113e56040850182611243565b5060608201516113f8606085018261118b565b50608082015161140b6080850182611243565b5060a082015161141e60a085018261118b565b5060c082015161143160c0850182611243565b5060e082015161144460e085018261118b565b50505050565b600061145683836113a8565b6101008301905092915050565b6000602082019050919050565b600061147b8261137c565b6114858185611387565b935061149083611398565b8060005b838110156114c15781516114a8888261144a565b97506114b383611463565b925050600181019050611494565b5085935050505092915050565b600060208201905081810360008301526114e88184611470565b905092915050565b6114f981611231565b82525050565b600060208201905061151460008301846114f0565b92915050565b6000602082840312156115305761152f611123565b5b600061153e84828501611327565b91505092915050565b6000806000606084860312156115605761155f611123565b5b600061156e86828701611149565b935050602061157f86828701611327565b925050604061159086828701611149565b9150509250925092565b6115a381611128565b82525050565b60006020820190506115be600083018461159a565b92915050565b600082825260208201905092915050565b7f596f752063616e27742074616b65207468697320626574000000000000000000600082015250565b600061160b6017836115c4565b9150611616826115d5565b602082019050919050565b6000602082019050818103600083015261163a816115fe565b9050919050565b7f42657420616d6f756e74206e6f74206d61746368656400000000000000000000600082015250565b60006116776016836115c4565b915061168282611641565b602082019050919050565b600060208201905081810360008301526116a68161166a565b9050919050565b7f4e487b7100000000000000000000000000000000000000000000000000000000600052601160045260246000fd5b60006116e782611128565b91507fffffffffffffffffffffffffffffffffffffffffffffffffffffffffffffffff8203611719576117186116ad565b5b600182019050919050565b7f4e487b7100000000000000000000000000000000000000000000000000000000600052604160045260246000fd5b7f4e487b7100000000000000000000000000000000000000000000000000000000600052603260045260246000fd5b7f426574206c657373207468616e206d696e696d756d4265740000000000000000600082015250565b60006117b86018836115c4565b91506117c382611782565b602082019050919050565b600060208201905081810360008301526117e7816117ab565b9050919050565b7f42657420737461747573206e6f742043726561746564206f7220696e50726f6760008201527f7265737300000000000000000000000000000000000000000000000000000000602082015250565b600061184a6024836115c4565b9150611855826117ee565b604082019050919050565b600060208201905081810360008301526118798161183d565b9050919050565b7f496e76616c696420706c61796572206164647265737300000000000000000000600082015250565b60006118b66016836115c4565b91506118c182611880565b602082019050919050565b600060208201905081810360008301526118e5816118a9565b9050919050565b7f4f776e61626c653a206e6577206f776e657220697320746865207a65726f206160008201527f6464726573730000000000000000000000000000000000000000000000000000602082015250565b60006119486026836115c4565b9150611953826118ec565b604082019050919050565b600060208201905081810360008301526119778161193b565b9050919050565b7f4f776e61626c653a2063616c6c6572206973206e6f7420746865206f776e6572600082015250565b60006119b46020836115c4565b91506119bf8261197e565b602082019050919050565b600060208201905081810360008301526119e3816119a7565b905091905056fea264697066735822122062f75cea695a0e5b7476ae8f93a2b63affcee77325ce3148e36f3cb18bf26c9264736f6c63430008120033",
  "devdoc": {
    "kind": "dev",
    "methods": {
      "owner()": {
        "details": "Returns the address of the current owner."
      },
      "renounceOwnership()": {
        "details": "Leaves the contract without owner. It will not be possible to call `onlyOwner` functions. Can only be called by the current owner. NOTE: Renouncing ownership will leave the contract without an owner, thereby disabling any functionality that is only available to the owner."
      },
      "transferOwnership(address)": {
        "details": "Transfers ownership of the contract to a new account (`newOwner`). Can only be called by the current owner."
      }
    },
    "version": 1
  },
  "userdoc": {
    "kind": "user",
    "methods": {},
    "version": 1
  },
  "storageLayout": {
    "storage": [
      {
        "astId": 7,
        "contract": "contracts/Bet.sol:BetContract",
        "label": "_owner",
        "offset": 0,
        "slot": "0",
        "type": "t_address"
      },
      {
        "astId": 223,
        "contract": "contracts/Bet.sol:BetContract",
        "label": "_id",
        "offset": 0,
        "slot": "1",
        "type": "t_struct(Counter)140_storage"
      },
      {
        "astId": 226,
        "contract": "contracts/Bet.sol:BetContract",
        "label": "minimumBet",
        "offset": 0,
        "slot": "2",
        "type": "t_uint256"
      },
      {
        "astId": 231,
        "contract": "contracts/Bet.sol:BetContract",
        "label": "id2Bet",
        "offset": 0,
        "slot": "3",
        "type": "t_mapping(t_uint256,t_struct(Bet)254_storage)"
      }
    ],
    "types": {
      "t_address": {
        "encoding": "inplace",
        "label": "address",
        "numberOfBytes": "20"
      },
      "t_enum(BetStatus)236": {
        "encoding": "inplace",
        "label": "enum BetContract.BetStatus",
        "numberOfBytes": "1"
      },
      "t_mapping(t_uint256,t_struct(Bet)254_storage)": {
        "encoding": "mapping",
        "key": "t_uint256",
        "label": "mapping(uint256 => struct BetContract.Bet)",
        "numberOfBytes": "32",
        "value": "t_struct(Bet)254_storage"
      },
      "t_struct(Bet)254_storage": {
        "encoding": "inplace",
        "label": "struct BetContract.Bet",
        "members": [
          {
            "astId": 238,
            "contract": "contracts/Bet.sol:BetContract",
            "label": "id",
            "offset": 0,
            "slot": "0",
            "type": "t_uint256"
          },
          {
            "astId": 241,
            "contract": "contracts/Bet.sol:BetContract",
            "label": "status",
            "offset": 0,
            "slot": "1",
            "type": "t_enum(BetStatus)236"
          },
          {
            "astId": 243,
            "contract": "contracts/Bet.sol:BetContract",
            "label": "player1",
            "offset": 1,
            "slot": "1",
            "type": "t_address"
          },
          {
            "astId": 245,
            "contract": "contracts/Bet.sol:BetContract",
            "label": "scorePlayer1",
            "offset": 0,
            "slot": "2",
            "type": "t_uint256"
          },
          {
            "astId": 247,
            "contract": "contracts/Bet.sol:BetContract",
            "label": "player2",
            "offset": 0,
            "slot": "3",
            "type": "t_address"
          },
          {
            "astId": 249,
            "contract": "contracts/Bet.sol:BetContract",
            "label": "scorePlayer2",
            "offset": 0,
            "slot": "4",
            "type": "t_uint256"
          },
          {
            "astId": 251,
            "contract": "contracts/Bet.sol:BetContract",
            "label": "winner",
            "offset": 0,
            "slot": "5",
            "type": "t_address"
          },
          {
            "astId": 253,
            "contract": "contracts/Bet.sol:BetContract",
            "label": "betAmount",
            "offset": 0,
            "slot": "6",
            "type": "t_uint256"
          }
        ],
        "numberOfBytes": "224"
      },
      "t_struct(Counter)140_storage": {
        "encoding": "inplace",
        "label": "struct Counters.Counter",
        "members": [
          {
            "astId": 139,
            "contract": "contracts/Bet.sol:BetContract",
            "label": "_value",
            "offset": 0,
            "slot": "0",
            "type": "t_uint256"
          }
        ],
        "numberOfBytes": "32"
      },
      "t_uint256": {
        "encoding": "inplace",
        "label": "uint256",
        "numberOfBytes": "32"
      }
    }
  }
}